:060000000A128A1100291A
:10000800F000030EF1000B1810200B194E21710E91
:100018008300F00E700E090003138312061F860A70
:08002800861F86030B1008007F
:1002000006212E21252135213D210529031783169D
:100210008801890103138316850103138316860160
:100220000313831687010617861781131517951771
:10023000031383123F3085000313831286010313D7
:1002400083123F3087000030A00003138316161777
:1002500096170313831206080B1008000313831666
:100260000F178F160F120F140800031383128B172A
:100270008B150B108B160B110800031383168112BC
:10028000811101158114011403138312B23081000E
:100290000B110800B23081000B1108004A21A00A9E
:1002A0002008323C031D08008301A001A10A0A3086
:1002B00021060319A101210870218700602108008F
:1002C000A20A22080A3C031D08008301A201A30A16
:1002D000063023060319A3012308702185000800B6
:1002E0008A010A140F3982073F3406345B344F34D5
:1002F00066346D347D340734FF346F3477347C34A6
:0803000039345E3479347134A4
:04400E00D420FF3E7D
:00000001FF
